{
  "contractName": "Voting",
  "abi": [
    {
      "inputs": [
        {
          "internalType": "string[]",
          "name": "candidateNames",
          "type": "string[]"
        }
      ],
      "stateMutability": "nonpayable",
      "type": "constructor"
    },
    {
      "anonymous": false,
      "inputs": [
        {
          "indexed": false,
          "internalType": "address",
          "name": "voter",
          "type": "address"
        },
        {
          "indexed": false,
          "internalType": "uint256",
          "name": "candidateId",
          "type": "uint256"
        }
      ],
      "name": "Voted",
      "type": "event"
    },
    {
      "inputs": [
        {
          "internalType": "uint256",
          "name": "",
          "type": "uint256"
        }
      ],
      "name": "candidates",
      "outputs": [
        {
          "internalType": "string",
          "name": "name",
          "type": "string"
        },
        {
          "internalType": "uint256",
          "name": "voteCount",
          "type": "uint256"
        }
      ],
      "stateMutability": "view",
      "type": "function",
      "constant": true
    },
    {
      "inputs": [
        {
          "internalType": "address",
          "name": "",
          "type": "address"
        }
      ],
      "name": "hasVoted",
      "outputs": [
        {
          "internalType": "bool",
          "name": "",
          "type": "bool"
        }
      ],
      "stateMutability": "view",
      "type": "function",
      "constant": true
    },
    {
      "inputs": [],
      "name": "totalCandidates",
      "outputs": [
        {
          "internalType": "uint256",
          "name": "",
          "type": "uint256"
        }
      ],
      "stateMutability": "view",
      "type": "function",
      "constant": true
    },
    {
      "inputs": [
        {
          "internalType": "uint256",
          "name": "candidateId",
          "type": "uint256"
        }
      ],
      "name": "castVote",
      "outputs": [],
      "stateMutability": "nonpayable",
      "type": "function"
    },
    {
      "inputs": [
        {
          "internalType": "uint256",
          "name": "candidateId",
          "type": "uint256"
        }
      ],
      "name": "getCandidate",
      "outputs": [
        {
          "internalType": "string",
          "name": "",
          "type": "string"
        },
        {
          "internalType": "uint256",
          "name": "",
          "type": "uint256"
        }
      ],
      "stateMutability": "view",
      "type": "function",
      "constant": true
    },
    {
      "inputs": [
        {
          "internalType": "address",
          "name": "user",
          "type": "address"
        }
      ],
      "name": "hasVotedCheck",
      "outputs": [
        {
          "internalType": "bool",
          "name": "",
          "type": "bool"
        }
      ],
      "stateMutability": "view",
      "type": "function",
      "constant": true
    },
    {
      "inputs": [],
      "name": "getCandidates",
      "outputs": [
        {
          "components": [
            {
              "internalType": "string",
              "name": "name",
              "type": "string"
            },
            {
              "internalType": "uint256",
              "name": "voteCount",
              "type": "uint256"
            }
          ],
          "internalType": "struct Voting.Candidate[]",
          "name": "",
          "type": "tuple[]"
        }
      ],
      "stateMutability": "view",
      "type": "function",
      "constant": true
    }
  ],
  "bytecode": "0x60806040523480156200001157600080fd5b50604051620011b4380380620011b48339818101604052810190620000379190620002b3565b805160028190555060005b8151811015620000f757604051806040016040528083838151811062000091577f4e487b7100000000000000000000000000000000000000000000000000000000600052603260045260246000fd5b6020026020010151815260200160008152506000808381526020019081526020016000206000820151816000019080519060200190620000d3929190620000ff565b50602082015181600101559050508080620000ee9062000404565b91505062000042565b5050620004df565b8280546200010d90620003ce565b90600052602060002090601f0160209004810192826200013157600085556200017d565b82601f106200014c57805160ff19168380011785556200017d565b828001600101855582156200017d579182015b828111156200017c5782518255916020019190600101906200015f565b5b5090506200018c919062000190565b5090565b5b80821115620001ab57600081600090555060010162000191565b5090565b6000620001c6620001c0846200032c565b620002f8565b9050808382526020820190508260005b858110156200020a5781518501620001ef888262000286565b845260208401935060208301925050600181019050620001d6565b5050509392505050565b60006200022b62000225846200035b565b620002f8565b9050828152602081018484840111156200024457600080fd5b6200025184828562000398565b509392505050565b600082601f8301126200026b57600080fd5b81516200027d848260208601620001af565b91505092915050565b600082601f8301126200029857600080fd5b8151620002aa84826020860162000214565b91505092915050565b600060208284031215620002c657600080fd5b600082015167ffffffffffffffff811115620002e157600080fd5b620002ef8482850162000259565b91505092915050565b6000604051905081810181811067ffffffffffffffff82111715620003225762000321620004b0565b5b8060405250919050565b600067ffffffffffffffff8211156200034a5762000349620004b0565b5b602082029050602081019050919050565b600067ffffffffffffffff821115620003795762000378620004b0565b5b601f19601f8301169050602081019050919050565b6000819050919050565b60005b83811015620003b85780820151818401526020810190506200039b565b83811115620003c8576000848401525b50505050565b60006002820490506001821680620003e757607f821691505b60208210811415620003fe57620003fd62000481565b5b50919050565b600062000411826200038e565b91507fffffffffffffffffffffffffffffffffffffffffffffffffffffffffffffffff82141562000447576200044662000452565b5b600182019050919050565b7f4e487b7100000000000000000000000000000000000000000000000000000000600052601160045260246000fd5b7f4e487b7100000000000000000000000000000000000000000000000000000000600052602260045260246000fd5b7f4e487b7100000000000000000000000000000000000000000000000000000000600052604160045260246000fd5b610cc580620004ef6000396000f3fe608060405234801561001057600080fd5b506004361061007d5760003560e01c806335b8e8201161005b57806335b8e820146101015780633866965c146101325780633eb76b9c14610150578063f480ad161461016c5761007d565b806306a49fce1461008257806309eef43e146100a05780633477ee2e146100d0575b600080fd5b61008a61019c565b60405161009791906109ce565b60405180910390f35b6100ba60048036038101906100b5919061075f565b610343565b6040516100c791906109f0565b60405180910390f35b6100ea60048036038101906100e59190610788565b610363565b6040516100f8929190610a0b565b60405180910390f35b61011b60048036038101906101169190610788565b61040f565b604051610129929190610a0b565b60405180910390f35b61013a610523565b6040516101479190610a7b565b60405180910390f35b61016a60048036038101906101659190610788565b610529565b005b6101866004803603810190610181919061075f565b6106c5565b60405161019391906109f0565b60405180910390f35b6060600060025467ffffffffffffffff8111156101e2577f4e487b7100000000000000000000000000000000000000000000000000000000600052604160045260246000fd5b60405190808252806020026020018201604052801561021b57816020015b61020861071b565b8152602001906001900390816102005790505b50905060005b60025481101561033b5760008082815260200190815260200160002060405180604001604052908160008201805461025890610b77565b80601f016020809104026020016040519081016040528092919081815260200182805461028490610b77565b80156102d15780601f106102a6576101008083540402835291602001916102d1565b820191906000526020600020905b8154815290600101906020018083116102b457829003601f168201915b5050505050815260200160018201548152505082828151811061031d577f4e487b7100000000000000000000000000000000000000000000000000000000600052603260045260246000fd5b6020026020010181905250808061033390610ba9565b915050610221565b508091505090565b60016020528060005260406000206000915054906101000a900460ff1681565b600060205280600052604060002060009150905080600001805461038690610b77565b80601f01602080910402602001604051908101604052809291908181526020018280546103b290610b77565b80156103ff5780601f106103d4576101008083540402835291602001916103ff565b820191906000526020600020905b8154815290600101906020018083116103e257829003601f168201915b5050505050908060010154905082565b60606000808310158015610424575060025483105b610463576040517f08c379a000000000000000000000000000000000000000000000000000000000815260040161045a90610a5b565b60405180910390fd5b6000808481526020019081526020016000206000016000808581526020019081526020016000206001015481805461049a90610b77565b80601f01602080910402602001604051908101604052809291908181526020018280546104c690610b77565b80156105135780601f106104e857610100808354040283529160200191610513565b820191906000526020600020905b8154815290600101906020018083116104f657829003601f168201915b5050505050915091509150915091565b60025481565b600160003373ffffffffffffffffffffffffffffffffffffffff1673ffffffffffffffffffffffffffffffffffffffff16815260200190815260200160002060009054906101000a900460ff16156105b6576040517f08c379a00000000000000000000000000000000000000000000000000000000081526004016105ad90610a3b565b60405180910390fd5b600081101580156105c8575060025481105b610607576040517f08c379a00000000000000000000000000000000000000000000000000000000081526004016105fe90610a5b565b60405180910390fd5b600080828152602001908152602001600020600101600081548092919061062d90610ba9565b919050555060018060003373ffffffffffffffffffffffffffffffffffffffff1673ffffffffffffffffffffffffffffffffffffffff16815260200190815260200160002060006101000a81548160ff0219169083151502179055507f4d99b957a2bc29a30ebd96a7be8e68fe50a3c701db28a91436490b7d53870ca433826040516106ba9291906109a5565b60405180910390a150565b6000600160008373ffffffffffffffffffffffffffffffffffffffff1673ffffffffffffffffffffffffffffffffffffffff16815260200190815260200160002060009054906101000a900460ff169050919050565b604051806040016040528060608152602001600081525090565b60008135905061074481610c61565b92915050565b60008135905061075981610c78565b92915050565b60006020828403121561077157600080fd5b600061077f84828501610735565b91505092915050565b60006020828403121561079a57600080fd5b60006107a88482850161074a565b91505092915050565b60006107bd838361094a565b905092915050565b6107ce81610afc565b82525050565b60006107df82610aa6565b6107e98185610ac9565b9350836020820285016107fb85610a96565b8060005b85811015610837578484038952815161081885826107b1565b945061082383610abc565b925060208a019950506001810190506107ff565b50829750879550505050505092915050565b61085281610b0e565b82525050565b600061086382610ab1565b61086d8185610ada565b935061087d818560208601610b44565b61088681610c50565b840191505092915050565b600061089c82610ab1565b6108a68185610aeb565b93506108b6818560208601610b44565b6108bf81610c50565b840191505092915050565b60006108d7601783610aeb565b91507f596f75206861766520616c726561647920766f746564210000000000000000006000830152602082019050919050565b6000610917601483610aeb565b91507f496e76616c69642063616e6469646174652049440000000000000000000000006000830152602082019050919050565b600060408301600083015184820360008601526109678282610858565b915050602083015161097c6020860182610987565b508091505092915050565b61099081610b3a565b82525050565b61099f81610b3a565b82525050565b60006040820190506109ba60008301856107c5565b6109c76020830184610996565b9392505050565b600060208201905081810360008301526109e881846107d4565b905092915050565b6000602082019050610a056000830184610849565b92915050565b60006040820190508181036000830152610a258185610891565b9050610a346020830184610996565b9392505050565b60006020820190508181036000830152610a54816108ca565b9050919050565b60006020820190508181036000830152610a748161090a565b9050919050565b6000602082019050610a906000830184610996565b92915050565b6000819050602082019050919050565b600081519050919050565b600081519050919050565b6000602082019050919050565b600082825260208201905092915050565b600082825260208201905092915050565b600082825260208201905092915050565b6000610b0782610b1a565b9050919050565b60008115159050919050565b600073ffffffffffffffffffffffffffffffffffffffff82169050919050565b6000819050919050565b60005b83811015610b62578082015181840152602081019050610b47565b83811115610b71576000848401525b50505050565b60006002820490506001821680610b8f57607f821691505b60208210811415610ba357610ba2610c21565b5b50919050565b6000610bb482610b3a565b91507fffffffffffffffffffffffffffffffffffffffffffffffffffffffffffffffff821415610be757610be6610bf2565b5b600182019050919050565b7f4e487b7100000000000000000000000000000000000000000000000000000000600052601160045260246000fd5b7f4e487b7100000000000000000000000000000000000000000000000000000000600052602260045260246000fd5b6000601f19601f8301169050919050565b610c6a81610afc565b8114610c7557600080fd5b50565b610c8181610b3a565b8114610c8c57600080fd5b5056fea26469706673582212203ed0a707dc860cca6fffa28b64cccfa2c229c4213c0e95da2040bdda633a281864736f6c63430008000033",
  "immutableReferences": {},
  "source": "// SPDX-License-Identifier: MIT\npragma solidity ^0.8.0;\n\ncontract Voting {\n    struct Candidate {\n        string name;\n        uint voteCount;\n    }\n\n    mapping(uint => Candidate) public candidates;\n    mapping(address => bool) public hasVoted;\n    uint public totalCandidates;\n\n    event Voted(address voter, uint candidateId);\n\n    constructor(string[] memory candidateNames) {\n        totalCandidates = candidateNames.length;\n        for (uint i = 0; i < candidateNames.length; i++) {\n            candidates[i] = Candidate(candidateNames[i], 0);\n        }\n    }\n\n    function castVote(uint candidateId) public {\n        require(!hasVoted[msg.sender], \"You have already voted!\");\n        require(candidateId >= 0 && candidateId < totalCandidates, \"Invalid candidate ID\");\n\n        candidates[candidateId].voteCount++;\n        hasVoted[msg.sender] = true;\n\n    \n        emit Voted(msg.sender, candidateId);\n    }\n\n    function getCandidate(uint candidateId) public view returns (string memory, uint) {\n        require(candidateId >= 0 && candidateId < totalCandidates, \"Invalid candidate ID\");\n        return (candidates[candidateId].name, candidates[candidateId].voteCount);\n    }\n    \n    function hasVotedCheck(address user) public view returns (bool) {\n        return hasVoted[user];\n    }\n\n    function getCandidates() public view returns (Candidate[] memory) {\n        Candidate[] memory candidateList = new Candidate[](totalCandidates);\n        for (uint i = 0; i < totalCandidates; i++) {\n            candidateList[i] = candidates[i];\n        }\n        return candidateList;\n    }\n}",
  "sourcePath": "/Users/andreypetrov/Desktop/lets cook/contracts/Voting.sol",
  "compiler": {
    "name": "solc",
    "version": "0.8.0+commit.c7dfd78e.Emscripten.clang"
  },
  "schemaVersion": "3.4.16",
  "updatedAt": "2024-10-31T03:16:03.870Z",
  "networkType": "ethereum",
  "devdoc": {
    "kind": "dev",
    "methods": {},
    "version": 1
  },
  "userdoc": {
    "kind": "user",
    "methods": {},
    "version": 1
  }
}