{
  "contractName": "VotingContract",
  "abi": [
    {
      "inputs": [
        {
          "internalType": "string[]",
          "name": "_candidates",
          "type": "string[]"
        }
      ],
      "stateMutability": "nonpayable",
      "type": "constructor"
    },
    {
      "inputs": [
        {
          "internalType": "uint256",
          "name": "",
          "type": "uint256"
        }
      ],
      "name": "candidates",
      "outputs": [
        {
          "internalType": "uint256",
          "name": "id",
          "type": "uint256"
        },
        {
          "internalType": "string",
          "name": "name",
          "type": "string"
        },
        {
          "internalType": "uint256",
          "name": "voteCount",
          "type": "uint256"
        }
      ],
      "stateMutability": "view",
      "type": "function",
      "constant": true
    },
    {
      "inputs": [],
      "name": "candidatesCount",
      "outputs": [
        {
          "internalType": "uint256",
          "name": "",
          "type": "uint256"
        }
      ],
      "stateMutability": "view",
      "type": "function",
      "constant": true
    },
    {
      "inputs": [
        {
          "internalType": "address",
          "name": "",
          "type": "address"
        }
      ],
      "name": "voters",
      "outputs": [
        {
          "internalType": "bool",
          "name": "",
          "type": "bool"
        }
      ],
      "stateMutability": "view",
      "type": "function",
      "constant": true
    },
    {
      "inputs": [
        {
          "internalType": "uint256",
          "name": "_candidateId",
          "type": "uint256"
        }
      ],
      "name": "vote",
      "outputs": [],
      "stateMutability": "nonpayable",
      "type": "function"
    },
    {
      "inputs": [
        {
          "internalType": "uint256",
          "name": "_candidateId",
          "type": "uint256"
        }
      ],
      "name": "getCandidate",
      "outputs": [
        {
          "internalType": "string",
          "name": "name",
          "type": "string"
        },
        {
          "internalType": "uint256",
          "name": "voteCount",
          "type": "uint256"
        }
      ],
      "stateMutability": "view",
      "type": "function",
      "constant": true
    }
  ],
  "bytecode": "0x60806040523480156200001157600080fd5b5060405162000d6d38038062000d6d8339818101604052810190620000379190620002ed565b60005b8151811015620000ac576200009682828151811062000082577f4e487b7100000000000000000000000000000000000000000000000000000000600052603260045260246000fd5b6020026020010151620000b460201b60201c565b8080620000a3906200043e565b9150506200003a565b505062000519565b60026000815480929190620000c9906200043e565b919050555060405180606001604052806002548152602001828152602001600081525060008060025481526020019081526020016000206000820151816000015560208201518160010190805190602001906200012892919062000139565b506040820151816002015590505050565b828054620001479062000408565b90600052602060002090601f0160209004810192826200016b5760008555620001b7565b82601f106200018657805160ff1916838001178555620001b7565b82800160010185558215620001b7579182015b82811115620001b657825182559160200191906001019062000199565b5b509050620001c69190620001ca565b5090565b5b80821115620001e5576000816000905550600101620001cb565b5090565b600062000200620001fa8462000366565b62000332565b9050808382526020820190508260005b85811015620002445781518501620002298882620002c0565b84526020840193506020830192505060018101905062000210565b5050509392505050565b6000620002656200025f8462000395565b62000332565b9050828152602081018484840111156200027e57600080fd5b6200028b848285620003d2565b509392505050565b600082601f830112620002a557600080fd5b8151620002b7848260208601620001e9565b91505092915050565b600082601f830112620002d257600080fd5b8151620002e48482602086016200024e565b91505092915050565b6000602082840312156200030057600080fd5b600082015167ffffffffffffffff8111156200031b57600080fd5b620003298482850162000293565b91505092915050565b6000604051905081810181811067ffffffffffffffff821117156200035c576200035b620004ea565b5b8060405250919050565b600067ffffffffffffffff821115620003845762000383620004ea565b5b602082029050602081019050919050565b600067ffffffffffffffff821115620003b357620003b2620004ea565b5b601f19601f8301169050602081019050919050565b6000819050919050565b60005b83811015620003f2578082015181840152602081019050620003d5565b8381111562000402576000848401525b50505050565b600060028204905060018216806200042157607f821691505b60208210811415620004385762000437620004bb565b5b50919050565b60006200044b82620003c8565b91507fffffffffffffffffffffffffffffffffffffffffffffffffffffffffffffffff8214156200048157620004806200048c565b5b600182019050919050565b7f4e487b7100000000000000000000000000000000000000000000000000000000600052601160045260246000fd5b7f4e487b7100000000000000000000000000000000000000000000000000000000600052602260045260246000fd5b7f4e487b7100000000000000000000000000000000000000000000000000000000600052604160045260246000fd5b61084480620005296000396000f3fe608060405234801561001057600080fd5b50600436106100575760003560e01c80630121b93f1461005c5780632d35a8a2146100785780633477ee2e1461009657806335b8e820146100c8578063a3ec138d146100f9575b600080fd5b6100766004803603810190610071919061047b565b610129565b005b61008061028c565b60405161008d9190610606565b60405180910390f35b6100b060048036038101906100ab919061047b565b610292565b6040516100bf93929190610621565b60405180910390f35b6100e260048036038101906100dd919061047b565b610344565b6040516100f0929190610596565b60405180910390f35b610113600480360381019061010e9190610452565b610408565b604051610120919061057b565b60405180910390f35b600160003373ffffffffffffffffffffffffffffffffffffffff1673ffffffffffffffffffffffffffffffffffffffff16815260200190815260200160002060009054906101000a900460ff16156101b6576040517f08c379a00000000000000000000000000000000000000000000000000000000081526004016101ad906105c6565b60405180910390fd5b6000811180156101c857506002548111155b610207576040517f08c379a00000000000000000000000000000000000000000000000000000000081526004016101fe906105e6565b60405180910390fd5b60018060003373ffffffffffffffffffffffffffffffffffffffff1673ffffffffffffffffffffffffffffffffffffffff16815260200190815260200160002060006101000a81548160ff021916908315150217905550600080828152602001908152602001600020600201600081548092919061028490610728565b919050555050565b60025481565b60006020528060005260406000206000915090508060000154908060010180546102bb906106f6565b80601f01602080910402602001604051908101604052809291908181526020018280546102e7906106f6565b80156103345780601f1061030957610100808354040283529160200191610334565b820191906000526020600020905b81548152906001019060200180831161031757829003601f168201915b5050505050908060020154905083565b606060008060008481526020019081526020016000206001016000808581526020019081526020016000206002015481805461037f906106f6565b80601f01602080910402602001604051908101604052809291908181526020018280546103ab906106f6565b80156103f85780601f106103cd576101008083540402835291602001916103f8565b820191906000526020600020905b8154815290600101906020018083116103db57829003601f168201915b5050505050915091509150915091565b60016020528060005260406000206000915054906101000a900460ff1681565b600081359050610437816107e0565b92915050565b60008135905061044c816107f7565b92915050565b60006020828403121561046457600080fd5b600061047284828501610428565b91505092915050565b60006020828403121561048d57600080fd5b600061049b8482850161043d565b91505092915050565b6104ad8161068d565b82525050565b60006104be8261065f565b6104c8818561066a565b93506104d88185602086016106c3565b6104e1816107cf565b840191505092915050565b60006104f960178361066a565b91507f596f75206861766520616c726561647920766f7465642e0000000000000000006000830152602082019050919050565b600061053960158361066a565b91507f496e76616c69642063616e6469646174652049442e00000000000000000000006000830152602082019050919050565b610575816106b9565b82525050565b600060208201905061059060008301846104a4565b92915050565b600060408201905081810360008301526105b081856104b3565b90506105bf602083018461056c565b9392505050565b600060208201905081810360008301526105df816104ec565b9050919050565b600060208201905081810360008301526105ff8161052c565b9050919050565b600060208201905061061b600083018461056c565b92915050565b6000606082019050610636600083018661056c565b818103602083015261064881856104b3565b9050610657604083018461056c565b949350505050565b600081519050919050565b600082825260208201905092915050565b600061068682610699565b9050919050565b60008115159050919050565b600073ffffffffffffffffffffffffffffffffffffffff82169050919050565b6000819050919050565b60005b838110156106e15780820151818401526020810190506106c6565b838111156106f0576000848401525b50505050565b6000600282049050600182168061070e57607f821691505b60208210811415610722576107216107a0565b5b50919050565b6000610733826106b9565b91507fffffffffffffffffffffffffffffffffffffffffffffffffffffffffffffffff82141561076657610765610771565b5b600182019050919050565b7f4e487b7100000000000000000000000000000000000000000000000000000000600052601160045260246000fd5b7f4e487b7100000000000000000000000000000000000000000000000000000000600052602260045260246000fd5b6000601f19601f8301169050919050565b6107e98161067b565b81146107f457600080fd5b50565b610800816106b9565b811461080b57600080fd5b5056fea264697066735822122002f544f03315592f661af88599f4dac8a027556be6decd03c3c14b17a4a9a79264736f6c63430008000033",
  "immutableReferences": {},
  "source": "// SPDX-License-Identifier: MIT\npragma solidity ^0.8.0;\n\ncontract VotingContract {\n    struct Candidate {\n        uint id;\n        string name;\n        uint voteCount;\n    }\n\n    mapping(uint => Candidate) public candidates;\n    mapping(address => bool) public voters;\n    uint public candidatesCount;\n\n    // c,  cc \n    constructor(string[] memory _candidates) {\n        for (uint i = 0; i < _candidates.length; i++) {\n            addCandidate(_candidates[i]);\n        }\n    }\n\n    function addCandidate(string memory _name) private {\n        candidatesCount++;\n        candidates[candidatesCount] = Candidate(candidatesCount, _name, 0);\n    }\n\n    function vote(uint _candidateId) public {\n        require(!voters[msg.sender], \"You have already voted.\");\n        require(_candidateId > 0 && _candidateId <= candidatesCount, \"Invalid candidate ID.\");\n\n        voters[msg.sender] = true;\n        candidates[_candidateId].voteCount++;\n    }\n\n    function getCandidate(uint _candidateId) public view returns (string memory name, uint voteCount) {\n        return (candidates[_candidateId].name, candidates[_candidateId].voteCount);\n    }\n}\n",
  "sourcePath": "/Users/andreypetrov/Desktop/lets cook/contracts/VotingContract.sol",
  "compiler": {
    "name": "solc",
    "version": "0.8.0+commit.c7dfd78e.Emscripten.clang"
  },
  "schemaVersion": "3.4.16",
  "updatedAt": "2024-10-08T14:00:20.443Z",
  "networkType": "ethereum",
  "devdoc": {
    "kind": "dev",
    "methods": {},
    "version": 1
  },
  "userdoc": {
    "kind": "user",
    "methods": {},
    "version": 1
  }
}